:020000040000FA
:0400000007EF00F016
:100008002E82F4ED01F0DEEF01F0FE0E266E2E0ECC
:10001800276E27EC01F02850D96EDA6A050ED9262A
:10002800DF50300F206E2850D96EDA6A060ED926B6
:10003800DF50300F216E2850D96EDA6A070ED926A4
:10004800DF50300F226E2850D96EDA6A080ED92692
:10005800DF50300F236E2850D96EDA6A090ED92680
:10006800DF50300F1B6E2850D96EDA6A0A0ED92677
:10007800DF50300F1C6E2850D96EDA6A0B0ED92665
:10008800DF50300F1D6E2850D96EDA6A0C0ED92653
:10009800DF50300F1E6E2850D96EDA6A090ED92645
:1000A800530EDE18D8A45BEF00F05DEF00F076EF9A
:1000B80000F0C80E266E2F0E276E27EC01F0200EDA
:1000C800266E276A27EC01F0210E266E2F0E276E6A
:1000D80027EC01F0620E266E2F0E276E27EC01F03A
:1000E800B3EF00F02850D96EDA6A090ED9264C0E03
:1000F800DE18D8A482EF00F084EF00F09DEF00F046
:10010800DC0E266E2F0E276E27EC01F0200E266ED1
:10011800276A27EC01F0B20E266E2F0E276E27EC09
:1001280001F0770E266E2E0E276E27EC01F0B3EF46
:1001380000F0980E266E2F0E276E27EC01F0200E89
:10014800266E276A27EC01F0EF0E266E2F0E276E1B
:1001580027EC01F01B0E266E276A27EC01F0FA0E39
:10016800266E2E0E276E27EC01F00D6A2D6A0B6A9B
:100178008480270E2B6E100E2A6E2A06D8A02B0616
:100188002A2806E12B28D8A4CCEF00F0CEEF00F007
:10019800C1EF00F08490120009EC02F056EC01F077
:1001A8000009D8B4DAEF00F0DCEF00F0E0EF00F07F
:1001B8000E0E286E09EC00F00AC02CF0D00E2C268A
:1001C8000A0E2C60EAEF00F0ECEF00F0F0EF00F020
:1001D8000A50A2EC01F00A6A0D50D8A4F6EF00F01C
:1001E800F8EF00F00AEF01F00B50D8A4FEEF00F092
:1001F80000EF01F00AEF01F07E0E266E2F0E276E3B
:1002080027EC01F0010E0B6ED2EF00F0040E0D1872
:10021800D8A411EF01F013EF01F0D2EF00F00B04B6
:10022800D8A419EF01F01BEF01F0D2EF00F0430E54
:10023800266E2F0E276E27EC01F0020E0B6ED2EF02
:1002480000F007EF00F03DEF01F026C0F6FF27C0F1
:10025800F7FFF86A050EF76403D00800F55005D0DB
:10026800F6CFE9FFF7CFEAFFEF5017EC02F0264A86
:10027800272A26C0F6FF27C0F7FFF86A050EF7649D
:1002880003D00800F55005D0F6CFE9FFF7CFEAFF15
:10029800EF500009D8A453EF01F055EF01F029EF12
:1002A80001F0120060AE5BEF01F05DEF01F07CEF52
:1002B80001F063CF0EF064CF0FF061CF10F062CF82
:1002C80011F065CF12F066CF13F067CF14F068CF46
:1002D80015F069CF16F06ACF17F06BCF18F06CCF16
:1002E80019F06DCF1AF0609EA490010E7DEF01F019
:1002F800000E1200939493861F0E6F166F8E800E59
:100308006E18D8A48AEF01F08CEF01F083EF01F0AA
:10031800776AE10E706E1B0E716E030E726E010E1F
:100328000D01D46F0F01026B036B6B0E006FC00ED3
:10033800016F1F0E6F166F50606A1200286E0D5005
:10034800010FD96EDA6A2850D00FDF6E0D2A2850B7
:1003580017EC02F0080E0D18D8A4B5EF01F0B7EFAE
:1003680001F0C2EF01F0C3EC01F0AD0E266E2E0EC7
:10037800276E27EC01F00D6A2D6A0B6A12000F0137
:10038800436B446B6B0E416FC00E426F080E456F96
:1003980001C046FF02C047FF03C048FF04C049FF31
:1003A80005C04AFF06C04BFF07C04CFF08C04DFF01
:1003B80040871200000EF66E300EF76E000EF86ED3
:1003C8000900F5CF2DF000EE01F0240EEE6AE806E4
:1003D800FDE12E902E92000EF86E0001D0EF00F095
:1003E80006009EAAFAEF01F0FCEF01F007EF02F019
:1003F800ABA201EF02F003EF02F004EF02F0AB92C0
:10040800AECF0AF09E9A2E92110022EC02F0F28CE6
:10041800F28E96907EEC01F0DA0E266E2E0E276E86
:1004280027EC01F01200256E9EA81DEF02F01FEFC9
:1004380002F018EF02F025C0ADFF1200948E949CD4
:0E044800AC84AB8EAB88810EAF6E9D8A120025
:102E7600000A0D506C656173652C20456E74657291
:102E860020746865206C65737365722073746F6354
:102E96006B206F722075706461746520746865209C
:102EA60073746F636B2E000A0D5468652053746F3C
:102EB600636B20686173206265656E20757064615E
:102EC600746564207375636365737366756C6C797A
:102ED6000A0A0D000A0D496E697469616C697A61A6
:102EE60074696F6E206973207375636365737366A7
:102EF600756C2E2E0A0A0D000D526563656976659E
:102F060064207369676E616C2066726F6D207468E9
:102F16006520636C69656E740A0D002068617669C8
:102F26006E672073746F636B2073746F636B206CB2
:102F3600657373207468656E2031302E000A0D4566
:102F46006E7465722074686520416D6F756E7420AD
:102F56006F662073746F636B203A20000A0D506C05
:102F6600656173652C2055706461746520746865AD
:102F76002073746F636B2E000A0D456E74657220A4
:102F86007468652070726F64756374206964203A92
:102F960020000D5468652053746F636B206F6620A4
:102FA60070726F64756374204944200020686176EE
:102FB600696E67206C65737365722073746F636BDB
:102FC60020000D5468652070726F64756374204923
:102FD60044206F6620000D5468652070726F64751A
:102FE6006374204944203A20002069732075706478
:0B2FF6006174656420746F200000040B
:020000040020DA
:08000000FFFFFFFFFFFFFFFF00
:020000040030CA
:0E000000FF071F1FFF8285FF0FC00FE00F409C
:00000001FF
