:020000040000FA
:0400000007EF00F016
:0A000800558296ED09F063EF08F051
:100600000000416E1350490FD96EDA6ADF50246E34
:100610001250490FD96EDA6ADF50236E1150490F1C
:10062000D96EDA6ADF50226E1050490FD96EDA6A3D
:10063000DF50216E12500A0DF3CF33F0F4CF34F0B7
:100640001150640DF3CF35F0F4CF36F01050376E03
:10065000386AE80E3702F3CF39F0F4CF3AF03802B7
:10066000F3503A26030E3702F3503A263550392418
:100670003B6E36503A203C6E33503B243D6E345036
:100680003C203E6E13503D24426E000E3E20436ED1
:100690001A500A0DF3CF33F0F4CF34F01950640D33
:1006A000F3CF35F0F4CF36F01850376E386AE80ED5
:1006B0003702F3CF39F0F4CF3AF03802F3503A264C
:1006C000030E3702F3503A26355039243B6E36502C
:1006D0003A203C6E33503B243D6E34503C203E6EFD
:1006E0001B503D24446E000E3E20456E4250445C3B
:1006F000466E43504558476E4250445C4550800A10
:10070000336E4350800A3358D8B089EF03F08BEF33
:1007100003F0A0EF03F014C001F015C002F016C002
:1007200003F017C004F04C0E056E450E066E530E16
:10073000076E530E086E63EC09F0000E45EF04F0EF
:100740000E0E4118D8A4A7EF03F0A9EF03F040EF75
:1007500004F047BEB7EF03F0475007E10A0E465CCE
:10076000D8B0B5EF03F0B7EF03F0C9EF03F014C052
:1007700001F015C002F016C003F017C004F0530ECC
:10078000056E200E066E310E076E300E086E63EC9D
:1007900009F0030E286EE80E276E46C025F047C00C
:1007A00026F0ABEC06F025C02DF026C02EF0000E92
:1007B000306E0A0E2F6EC6EC07F02D50186E000E2C
:1007C000286E640E276E46C025F047C026F0ABECBD
:1007D00006F025C02DF026C02EF0000E306E0A0E59
:1007E0002F6EC6EC07F02D50196E000E286E0A0E03
:1007F000276E46C025F047C026F0ABEC06F025C0BA
:100800002DF026C02EF0000E306E0A0E2F6EC6ECB4
:1008100007F02D501A6E46C02DF047C02EF0000E86
:10082000306E0A0E2F6EC6EC07F02D501B6E18C0EE
:1008300025F0060E7EEC09F019C025F0070E7EECBF
:1008400009F01AC025F0080E7EEC09F01BC025F057
:10085000090E7EEC09F08480270E406E100E3F6E6C
:100860003F06D8A040063F2806E14028D8A43BEF29
:1008700004F03DEF04F030EF04F084909DEF03F0BE
:10088000210E256E96EC08F0010E1200296E0E0E58
:100890002918D8A44EEF04F050EF04F0A9EF04F0AB
:1008A0005304D8A456EF04F058EF04F065EF04F0B9
:1008B0001B2A0A0E1B18D8A460EF04F062EF04F0A4
:1008C00065EF04F01B6A73EF05F0020E5318D8A40D
:1008D0006CEF04F06EEF04F07BEF04F01A2A0A0EBE
:1008E0001A18D8A476EF04F078EF04F07BEF04F048
:1008F0001A6A73EF05F0030E5318D8A482EF04F0C0
:1009000084EF04F091EF04F0192A0A0E1918D8A404
:100910008CEF04F08EEF04F091EF04F0196A73EF9E
:1009200005F0040E5318D8A498EF04F09AEF04F0E1
:10093000A7EF04F0182A0A0E1818D8A4A2EF04F0A2
:10094000A4EF04F0A7EF04F0186A73EF05F073EF5B
:1009500005F00D0E2918D8A4B0EF04F0B2EF04F0A2
:10096000C0EF04F0532A050E5318D8A4BAEF04F0D0
:10097000BCEF04F0C0EF04F0010E536E73EF05F00E
:100980000B0E2918D8A4C7EF04F0C9EF04F0A7EFA5
:1009900004F0550E256E050E7EEC09F01BC025F007
:1009A000060E7EEC09F01AC025F0070E7EEC09F069
:1009B00019C025F0080E7EEC09F018C025F0090ECC
:1009C0007EEC09F014C001F015C002F016C003F06F
:1009D00017C004F018C005F019C006F01AC007F0DF
:1009E0001BC008F063EC09F08480270E286E100EFF
:1009F000276E2706D8A02806272806E12828D8A48D
:100A000004EF05F006EF05F0F9EF04F08490B8EC80
:100A100009F073EF05F01B506D0FD96EDA6ADF50E5
:100A2000246E1A50490FD96EDA6ADF50236E1950BE
:100A3000490FD96EDA6ADF50226E1850490FD96E0D
:100A4000DA6ADF50216E86EF05F01B50490FD96E30
:100A5000DA6ADF50246E1A506D0FD96EDA6ADF50F1
:100A6000236E1950490FD96EDA6ADF50226E185082
:100A7000490FD96EDA6ADF50216E86EF05F01B5000
:100A8000490FD96EDA6ADF50246E1A50490FD96EB9
:100A9000DA6ADF50236E19506D0FD96EDA6ADF50B3
:100AA000226E1850490FD96EDA6ADF50216E86EF38
:100AB00005F01B50490FD96EDA6ADF50246E1A50C8
:100AC000490FD96EDA6ADF50236E1950490FD96E7B
:100AD000DA6ADF50226E18506D0FD96EDA6ADF5075
:100AE000216E86EF05F05350010AD8B40BEF05F0E4
:100AF000030AD8B425EF05F0010AD8B43FEF05F09A
:100B0000070AD8B459EF05F086EF05F01200276EFA
:100B10000E0E2718D8A48FEF05F091EF05F0EAEF3D
:100B200005F05304D8A497EF05F099EF05F0A6EF70
:100B300005F0172A0A0E1718D8A4A1EF05F0A3EFA5
:100B400005F0A6EF05F0176A97EF06F0020E5318AE
:100B5000D8A4ADEF05F0AFEF05F0BCEF05F0162A15
:100B60000A0E1618D8A4B7EF05F0B9EF05F0BCEFE0
:100B700005F0166A97EF06F0030E5318D8A4C3EFDA
:100B800005F0C5EF05F0D2EF05F0152A0A0E15188D
:100B9000D8A4CDEF05F0CFEF05F0D2EF05F0156A40
:100BA00097EF06F0040E5318D8A4D9EF05F0DBEF49
:100BB00005F0E8EF05F0142A0A0E1418D8A4E3EFA4
:100BC00005F0E5EF05F0E8EF05F0146A97EF06F0A1
:100BD00097EF06F00D0E2718D8A4F1EF05F0F3EF0C
:100BE00005F001EF06F0532A050E5318D8A4FBEFC9
:100BF00005F0FDEF05F001EF06F0010E536E97EFE3
:100C000006F00B0E2718D8A408EF06F00AEF06F03E
:100C1000E8EF05F0500E256E000E7EEC09F014C0D2
:100C200025F0010E7EEC09F015C025F0020E7EECD9
:100C300009F016C025F0030E7EEC09F017C025F070
:100C4000040E7EEC09F014C001F015C002F016C0CD
:100C500003F017C004F0B8EC09F097EF06F0175056
:100C60006D0FD96EDA6ADF50246E1650490FD96EB7
:100C7000DA6ADF50236E1550490FD96EDA6ADF50F9
:100C8000226E1450490FD96EDA6ADF50216EAAEF36
:100C900006F01750490FD96EDA6ADF50246E1650ED
:100CA0006D0FD96EDA6ADF50236E1550490FD96E79
:100CB000DA6ADF50226E1450490FD96EDA6ADF50BB
:100CC000216EAAEF06F01750490FD96EDA6ADF508D
:100CD000246E1650490FD96EDA6ADF50236E155014
:100CE0006D0FD96EDA6ADF50226E1450490FD96E3B
:100CF000DA6ADF50216EAAEF06F01750490FD96E5D
:100D0000DA6ADF50246E1650490FD96EDA6ADF5066
:100D1000236E1550490FD96EDA6ADF50226E1450D7
:100D20006D0FD96EDA6ADF50216EAAEF06F05350CC
:100D3000010AD8B42FEF06F0030AD8B449EF06F041
:100D4000010AD8B463EF06F0070AD8B47DEF06F0C5
:100D5000AAEF06F012002A6A28BEB3EF06F0B1EF40
:100D600006F0B9EF06F0276C281ED8B0282A010E2D
:100D70002A6E26BEC0EF06F0BEEF06F0C6EF06F004
:100D8000256C261ED8B0262A010E2A1A000E2C6EBB
:100D9000000E2B6E27502810D8B4D1EF06F0D3EFF9
:100DA00006F0FBEF06F0010E296EDBEF06F0D8909F
:100DB00027362836292A28AEE0EF06F0E2EF06F0C3
:100DC000D7EF06F0D8902B362C362750255C2850CC
:100DD0002658D8A0EEEF06F0F0EF06F0F5EF06F09B
:100DE0002750255E2850265A2B80D890283227324B
:100DF000292EE2EF06F02A50D8B401EF07F003EFF6
:100E000007F007EF07F02B6C2C1ED8B02C2A2BC054
:100E100025F02CC026F012002B6E1E50D8B413EF14
:100E200007F015EF07F022EF07F01F50D8A41BEFD3
:100E300007F01DEF07F022EF07F02B5046EC04F00F
:100E400068EF07F01E50D8B428EF07F02AEF07F03C
:100E500037EF07F01F50D8B430EF07F032EF07F04C
:100E600037EF07F02B5087EC05F068EF07F00D0E19
:100E70002B18D8A43EEF07F040EF07F044EF07F03F
:100E8000010E1E6E4EEF07F00B0E2B18D8A44BEF81
:100E900007F04DEF07F04EEF07F01F1E1F50D8A4CC
:100EA00054EF07F056EF07F060EF07F0E50E216E04
:100EB000080E226E6E0E236ECC0E246E68EF07F0C5
:100EC0008F0E216E080E226E210E236EE90E246E07
:100ED000210E256E96EC08F012002550D96EDA6AC4
:100EE000050ED9261450DE18D8A479EF07F07BEF51
:100EF00007F0A5EF07F02550D96EDA6A060ED9265D
:100F00001550DE18D8A487EF07F089EF07F0A5EF9A
:100F100007F02550D96EDA6A070ED9261650DE186A
:100F2000D8A495EF07F097EF07F0A5EF07F025504D
:100F3000D96EDA6A080ED9261750DE18D8B4A3EF96
:100F400007F0A5EF07F0A8EF07F0000EC5EF07F0D8
:100F50002550D96EDA6A090ED926DF50106E255059
:100F6000D96EDA6A0A0ED926DF50116E2550D96E75
:100F7000DA6A0B0ED926DF50126E2550D96EDA6A66
:100F80000C0ED926DF50136E010E1200326A2EBEEF
:100F9000CEEF07F0CCEF07F0D4EF07F02D6C2E1E4C
:100FA000D8B02E2A010E326E30BEDBEF07F0D9EF3B
:100FB00007F0DFEF07F02F6C301ED8B0302A2F502B
:100FC0003010D8B4E6EF07F0E8EF07F00CEF08F0C8
:100FD000010E316EF0EF07F0D8902F363036312AFF
:100FE00030AEF5EF07F0F7EF07F0ECEF07F02F501A
:100FF0002D5C30502E58D8A000EF08F002EF08F01A
:1010000006EF08F02F502D5E30502E5AD890303217
:101010002F32312EF7EF07F03250D8B412EF08F02C
:1010200014EF08F018EF08F02D6C2E1ED8B02E2A01
:101030002DC02DF02EC02EF01200A3EC09F042ECD2
:1010400009F0010EC8EC08F0206EF6EC08F000097B
:10105000D8B42DEF08F02FEF08F037EF08F0600E4E
:10106000256E6DEC07F0486E48500A6E0B6A0E5004
:101070000F10D8B43EEF08F040EF08F045EF08F04D
:1010800020500CEC07F021EF08F00A500B10D8B4F8
:101090004CEF08F04EEF08F057EF08F0205001EC4D
:1010A00003F0486E48500A6E0B6A21EF08F0216A7F
:1010B000226A236A246A210E256E96EC08F021EF3D
:1010C00008F007EF00F09E0EF66E130EF76E000E9E
:1010D000F86E00EE6DF010EE0AF00900F5CFEEFFAD
:1010E000E550E150FAE1920EF66E130EF76E000E27
:1010F000F86E00EE49F010EE0CF00900F5CFEEFFAF
:10110000E550E150FAE100EE60F00D0EEE6AE806FF
:10111000FDE100EE01F0240EEE6AE806FDE15590D7
:101120005592000EF86E00011DEF08F02A6A255056
:101130002A24D96EDA6ADF50836E2AC026F0010EA7
:10114000276E262AA6EF08F0D8902736262EA4EF81
:1011500008F08050F00B2710806E030E296EE80E09
:10116000286E2806D8A02906282806E12928D8A410
:10117000BCEF08F0BEEF08F0B1EF08F02A2A030E2A
:101180002A64C5EF08F0C7EF08F097EF08F01200E7
:10119000256E2504D8A4CFEF08F0D1EF08F0F4EFC6
:1011A00008F082500F0B0F0AD8B4D9EF08F0DBEF2C
:1011B00008F0E8EF08F05450D8B4E1EF08F0E3EF9E
:1011C00008F0E8EF08F0546A82500F0BF5EF08F0D2
:1011D00082500F0B0F0AD8A4F0EF08F0F2EF08F0DE
:1011E000F4EF08F0010E546EFF0E120060AEFBEF3C
:1011F00008F0FDEF08F01CEF09F063CF60F064CF5A
:1012000061F061CF62F062CF63F065CF64F066CFCA
:1012100065F067CF66F068CF67F069CF68F06ACF96
:1012200069F06BCF6AF06CCF6BF06DCF6CF0609EA5
:10123000A490010E1DEF09F0000E12009394938606
:101240001F0E6F166F8E800E6E18D8A42AEF09F04D
:101250002CEF09F023EF09F0776AE10E706E1B0E98
:10126000716E030E726E010E0D01D46F0F01026BD1
:10127000036B6B0E006FC00E016F1F0E6F166F5069
:10128000606A1200010EAFEC09F0146E020EAFECB2
:1012900009F0156E030EAFEC09F0166E040EAFECFC
:1012A00009F0176E060EAFEC09F01B6E070EAFECDF
:1012B00009F01A6E080EAFEC09F0196E090EAFECCA
:1012C00009F0186E12000F01436B446B6B0E416FF7
:1012D000C00E426F080E456F01C046FF02C047FFB7
:1012E00003C048FF04C049FF05C04AFF06C04BFFCA
:1012F00007C04CFF08C04DFF40871200266E26C075
:10130000A9FF25C0A8FFA69EA69CA684F29E550E06
:10131000A76EAA0EA76EA682F28EA1A892EF09F080
:1013200094EF09F08DEF09F0A19812000600F2A2E7
:101330009CEF09F09EEF09F0A1EF09F00E1E0F1EC1
:10134000F292559211009690F28CD4EC09F0F28E44
:101350001EEC09F0D8EC09F0C1EC09F01200256E82
:1013600025C0A9FFA694A69EA69CA680A850120000
:101370001F6A1E6A010E536E000E0F6E000E0E6E77
:101380001200956A9250F00B926E8050F00B806EB6
:101390001200E721CB6B2D6EEE23EF6F0101F731C9
:1013A000DB7B3D7EFE33FF7FF18CF292F2881200F0
:0813B00094500F09946E120025
:020000040020DA
:08000000FFFFFFFFFFFFFFFF00
:020000040030CA
:0E000000FF071F1FFF8285FF0FC00FE00F409C
:00000001FF
